{
  "contractName": "Lottery",
  "abi": [
    {
      "inputs": [],
      "stateMutability": "nonpayable",
      "type": "constructor"
    },
    {
      "anonymous": false,
      "inputs": [
        {
          "indexed": false,
          "internalType": "string",
          "name": "message",
          "type": "string"
        }
      ],
      "name": "ANewPlayerEnrolled",
      "type": "event"
    },
    {
      "anonymous": false,
      "inputs": [
        {
          "indexed": false,
          "internalType": "string",
          "name": "",
          "type": "string"
        },
        {
          "indexed": false,
          "internalType": "address",
          "name": "",
          "type": "address"
        }
      ],
      "name": "DisplayWinner",
      "type": "event"
    },
    {
      "inputs": [],
      "name": "owner",
      "outputs": [
        {
          "internalType": "address",
          "name": "",
          "type": "address"
        }
      ],
      "stateMutability": "view",
      "type": "function",
      "constant": true
    },
    {
      "inputs": [
        {
          "internalType": "uint256",
          "name": "",
          "type": "uint256"
        }
      ],
      "name": "players",
      "outputs": [
        {
          "internalType": "address",
          "name": "",
          "type": "address"
        }
      ],
      "stateMutability": "view",
      "type": "function",
      "constant": true
    },
    {
      "inputs": [
        {
          "internalType": "uint256",
          "name": "newOdds",
          "type": "uint256"
        }
      ],
      "name": "setJackPotOdds",
      "outputs": [],
      "stateMutability": "nonpayable",
      "type": "function"
    },
    {
      "inputs": [],
      "name": "getPricePool",
      "outputs": [
        {
          "internalType": "uint256",
          "name": "",
          "type": "uint256"
        }
      ],
      "stateMutability": "view",
      "type": "function",
      "constant": true
    },
    {
      "inputs": [],
      "name": "getBalance",
      "outputs": [
        {
          "internalType": "uint256",
          "name": "",
          "type": "uint256"
        }
      ],
      "stateMutability": "view",
      "type": "function",
      "constant": true
    },
    {
      "inputs": [],
      "name": "getJackPot",
      "outputs": [
        {
          "internalType": "uint256",
          "name": "",
          "type": "uint256"
        }
      ],
      "stateMutability": "view",
      "type": "function",
      "constant": true
    },
    {
      "inputs": [
        {
          "internalType": "string",
          "name": "playerName",
          "type": "string"
        }
      ],
      "name": "enroleInLottery",
      "outputs": [],
      "stateMutability": "payable",
      "type": "function",
      "payable": true
    },
    {
      "inputs": [],
      "name": "getParticipants",
      "outputs": [
        {
          "internalType": "address[]",
          "name": "",
          "type": "address[]"
        }
      ],
      "stateMutability": "view",
      "type": "function",
      "constant": true
    },
    {
      "inputs": [],
      "name": "getNumberOfParticipants",
      "outputs": [
        {
          "internalType": "uint256",
          "name": "",
          "type": "uint256"
        }
      ],
      "stateMutability": "view",
      "type": "function",
      "constant": true
    },
    {
      "inputs": [],
      "name": "getAWinner",
      "outputs": [],
      "stateMutability": "nonpayable",
      "type": "function"
    },
    {
      "inputs": [],
      "name": "getCalculatedPrizePool",
      "outputs": [
        {
          "internalType": "uint256",
          "name": "",
          "type": "uint256"
        }
      ],
      "stateMutability": "view",
      "type": "function",
      "constant": true
    }
  ],
  "bytecode": "0x6080604052600a60015534801561001557600080fd5b50336000806101000a81548173ffffffffffffffffffffffffffffffffffffffff021916908373ffffffffffffffffffffffffffffffffffffffff16021790555061134f806100656000396000f3fe60806040526004361061009c5760003560e01c806371f543b61161006457806371f543b6146101765780638da5cb5b1461018d578063c4740b27146101b8578063c80c28a2146101d4578063f1bd4c04146101ff578063f71d96cb1461022a5761009c565b806312065fe0146100a15780631fec1cf7146100cc578063301a913d146100f757806338d69d6e146101205780635aa68ac01461014b575b600080fd5b3480156100ad57600080fd5b506100b6610267565b6040516100c391906107e7565b60405180910390f35b3480156100d857600080fd5b506100e161026f565b6040516100ee91906107e7565b60405180910390f35b34801561010357600080fd5b5061011e60048036038101906101199190610842565b610279565b005b34801561012c57600080fd5b5061013561032c565b60405161014291906107e7565b60405180910390f35b34801561015757600080fd5b50610160610397565b60405161016d919061095f565b60405180910390f35b34801561018257600080fd5b5061018b610425565b005b34801561019957600080fd5b506101a2610577565b6040516101af9190610990565b60405180910390f35b6101d260048036038101906101cd9190610af1565b61059b565b005b3480156101e057600080fd5b506101e9610778565b6040516101f691906107e7565b60405180910390f35b34801561020b57600080fd5b50610214610785565b60405161022191906107e7565b60405180910390f35b34801561023657600080fd5b50610251600480360381019061024c9190610842565b61078f565b60405161025e9190610990565b60405180910390f35b600047905090565b6000600254905090565b60008054906101000a900473ffffffffffffffffffffffffffffffffffffffff1673ffffffffffffffffffffffffffffffffffffffff163373ffffffffffffffffffffffffffffffffffffffff1614610307576040517f08c379a00000000000000000000000000000000000000000000000000000000081526004016102fe90610b97565b60405180910390fd5b60008110158015610319575060648111155b61032257600080fd5b8060018190555050565b60008060004442604051602001610344929190610bd8565b6040516020818303038152906040528051906020012060001c905060006001546064836103719190610c33565b11159050801561038e5760035460025461038b9190610c93565b92505b82935050505090565b6060600580548060200260200160405190810160405280929190818152602001828054801561041b57602002820191906000526020600020905b8160009054906101000a900473ffffffffffffffffffffffffffffffffffffffff1673ffffffffffffffffffffffffffffffffffffffff16815260200190600101908083116103d1575b5050505050905090565b600a6005805490501461046d576040517f08c379a000000000000000000000000000000000000000000000000000000000815260040161046490610d39565b60405180910390fd5b600060058054905090506000444260405160200161048c929190610bd8565b6040516020818303038152906040528051906020012060001c9050600082826104b59190610c33565b90506000600582815481106104cd576104cc610d59565b5b9060005260206000200160009054906101000a900473ffffffffffffffffffffffffffffffffffffffff1690507f159c3f8e1d6f2d5cc22329f54229d44b3b004c7ec92fae9e35421ed60425b548600460008373ffffffffffffffffffffffffffffffffffffffff1673ffffffffffffffffffffffffffffffffffffffff16815260200190815260200160002082604051610569929190610e81565b60405180910390a150505050565b60008054906101000a900473ffffffffffffffffffffffffffffffffffffffff1681565b670de0b6b3a764000034146105af57600080fd5b60008151116105bd57600080fd5b600a600580549050106105cf57600080fd5b80600460003373ffffffffffffffffffffffffffffffffffffffff1673ffffffffffffffffffffffffffffffffffffffff168152602001908152602001600020908161061b9190611053565b506005339080600181540180825580915050600190039060005260206000200160009091909190916101000a81548173ffffffffffffffffffffffffffffffffffffffff021916908373ffffffffffffffffffffffffffffffffffffffff1602179055506064605a3461068e9190611125565b6106989190611167565b600260008282546106a99190610c93565b9250508190555060646009346106bf9190611125565b6106c99190611167565b600360008282546106da9190610c93565b925050819055507f1083aa1b186bae344e722cd79f12ca4a73f99c9b39655aaa8d040823ac667346600460003373ffffffffffffffffffffffffffffffffffffffff1673ffffffffffffffffffffffffffffffffffffffff1681526020019081526020016000206040516020016107519190611272565b60405160208183030381529060405260405161076d91906112f7565b60405180910390a150565b6000600580549050905090565b6000600354905090565b6005818154811061079f57600080fd5b906000526020600020016000915054906101000a900473ffffffffffffffffffffffffffffffffffffffff1681565b6000819050919050565b6107e1816107ce565b82525050565b60006020820190506107fc60008301846107d8565b92915050565b6000604051905090565b600080fd5b600080fd5b61081f816107ce565b811461082a57600080fd5b50565b60008135905061083c81610816565b92915050565b6000602082840312156108585761085761080c565b5b60006108668482850161082d565b91505092915050565b600081519050919050565b600082825260208201905092915050565b6000819050602082019050919050565b600073ffffffffffffffffffffffffffffffffffffffff82169050919050565b60006108c68261089b565b9050919050565b6108d6816108bb565b82525050565b60006108e883836108cd565b60208301905092915050565b6000602082019050919050565b600061090c8261086f565b610916818561087a565b93506109218361088b565b8060005b8381101561095257815161093988826108dc565b9750610944836108f4565b925050600181019050610925565b5085935050505092915050565b600060208201905081810360008301526109798184610901565b905092915050565b61098a816108bb565b82525050565b60006020820190506109a56000830184610981565b92915050565b600080fd5b600080fd5b6000601f19601f8301169050919050565b7f4e487b7100000000000000000000000000000000000000000000000000000000600052604160045260246000fd5b6109fe826109b5565b810181811067ffffffffffffffff82111715610a1d57610a1c6109c6565b5b80604052505050565b6000610a30610802565b9050610a3c82826109f5565b919050565b600067ffffffffffffffff821115610a5c57610a5b6109c6565b5b610a65826109b5565b9050602081019050919050565b82818337600083830152505050565b6000610a94610a8f84610a41565b610a26565b905082815260208101848484011115610ab057610aaf6109b0565b5b610abb848285610a72565b509392505050565b600082601f830112610ad857610ad76109ab565b5b8135610ae8848260208601610a81565b91505092915050565b600060208284031215610b0757610b0661080c565b5b600082013567ffffffffffffffff811115610b2557610b24610811565b5b610b3184828501610ac3565b91505092915050565b600082825260208201905092915050565b7f466f6e6374696f6e207265736572766572206175206f776e6572000000000000600082015250565b6000610b81601a83610b3a565b9150610b8c82610b4b565b602082019050919050565b60006020820190508181036000830152610bb081610b74565b9050919050565b6000819050919050565b610bd2610bcd826107ce565b610bb7565b82525050565b6000610be48285610bc1565b602082019150610bf48284610bc1565b6020820191508190509392505050565b7f4e487b7100000000000000000000000000000000000000000000000000000000600052601260045260246000fd5b6000610c3e826107ce565b9150610c49836107ce565b925082610c5957610c58610c04565b5b828206905092915050565b7f4e487b7100000000000000000000000000000000000000000000000000000000600052601160045260246000fd5b6000610c9e826107ce565b9150610ca9836107ce565b9250828201905080821115610cc157610cc0610c64565b5b92915050565b7f576520646f206e6f742068617665203130207061727469636970616e7473207960008201527f6574200000000000000000000000000000000000000000000000000000000000602082015250565b6000610d23602383610b3a565b9150610d2e82610cc7565b604082019050919050565b60006020820190508181036000830152610d5281610d16565b9050919050565b7f4e487b7100000000000000000000000000000000000000000000000000000000600052603260045260246000fd5b7f4e487b7100000000000000000000000000000000000000000000000000000000600052602260045260246000fd5b60006002820490506001821680610dcf57607f821691505b602082108103610de257610de1610d88565b5b50919050565b60008190508160005260206000209050919050565b60008154610e0a81610db7565b610e148186610b3a565b94506001821660008114610e2f5760018114610e4557610e78565b60ff198316865281151560200286019350610e78565b610e4e85610de8565b60005b83811015610e7057815481890152600182019150602081019050610e51565b808801955050505b50505092915050565b60006040820190508181036000830152610e9b8185610dfd565b9050610eaa6020830184610981565b9392505050565b600081519050919050565b60006020601f8301049050919050565b600082821b905092915050565b600060088302610f097fffffffffffffffffffffffffffffffffffffffffffffffffffffffffffffffff82610ecc565b610f138683610ecc565b95508019841693508086168417925050509392505050565b6000819050919050565b6000610f50610f4b610f46846107ce565b610f2b565b6107ce565b9050919050565b6000819050919050565b610f6a83610f35565b610f7e610f7682610f57565b848454610ed9565b825550505050565b600090565b610f93610f86565b610f9e818484610f61565b505050565b5b81811015610fc257610fb7600082610f8b565b600181019050610fa4565b5050565b601f82111561100757610fd881610de8565b610fe184610ebc565b81016020851015610ff0578190505b611004610ffc85610ebc565b830182610fa3565b50505b505050565b600082821c905092915050565b600061102a6000198460080261100c565b1980831691505092915050565b60006110438383611019565b9150826002028217905092915050565b61105c82610eb1565b67ffffffffffffffff811115611075576110746109c6565b5b61107f8254610db7565b61108a828285610fc6565b600060209050601f8311600181146110bd57600084156110ab578287015190505b6110b58582611037565b86555061111d565b601f1984166110cb86610de8565b60005b828110156110f3578489015182556001820191506020850194506020810190506110ce565b86831015611110578489015161110c601f891682611019565b8355505b6001600288020188555050505b505050505050565b6000611130826107ce565b915061113b836107ce565b9250828202611149816107ce565b915082820484148315176111605761115f610c64565b5b5092915050565b6000611172826107ce565b915061117d836107ce565b92508261118d5761118c610c04565b5b828204905092915050565b600081905092915050565b600081546111b081610db7565b6111ba8186611198565b945060018216600081146111d557600181146111ea5761121d565b60ff198316865281151582028601935061121d565b6111f385610de8565b60005b83811015611215578154818901526001820191506020810190506111f6565b838801955050505b50505092915050565b7f2068617320656e726f6c6c656421212120476f6f64206c75636b210000000000600082015250565b600061125c601b83611198565b915061126782611226565b601b82019050919050565b600061127e82846111a3565b91506112898261124f565b915081905092915050565b60005b838110156112b2578082015181840152602081019050611297565b60008484015250505050565b60006112c982610eb1565b6112d38185610b3a565b93506112e3818560208601611294565b6112ec816109b5565b840191505092915050565b6000602082019050818103600083015261131181846112be565b90509291505056fea2646970667358221220dd7514569d0c14c5e93aeebc0270515963239039f520a85c961ee00781e1fe7064736f6c63430008130033",
  "immutableReferences": {},
  "source": "// SPDX-License-Identifier: MIT\r\npragma solidity 0.8.19;\r\n\r\n\r\n\r\ncontract Lottery {\r\n    address public owner;\r\n    uint256 private jackPotOdds = 10;\r\n\r\n    uint256 private prizePool;\r\n    uint256 private jackPot;\r\n    mapping(address => string) player;\r\n    address[] public players;\r\n\r\n    event ANewPlayerEnrolled(string message);\r\n    \r\n    event DisplayWinner(string, address);\r\n\r\n    constructor(){   \r\n        owner = msg.sender;\r\n    }\r\n\r\n    modifier onlyOwner() {\r\n        require(msg.sender == owner, \"Fonction reserver au owner\");\r\n        _;\r\n    }\r\n    \r\n    function setJackPotOdds(uint256 newOdds) public onlyOwner {   \r\n        require(newOdds >= 0 && newOdds <= 100);     \r\n        jackPotOdds = newOdds;\r\n    }\r\n\r\n    function getPricePool() public view returns (uint) {\r\n        return prizePool;\r\n    }\r\n\r\n    function getBalance() public view returns (uint) {\r\n        return address(this).balance;\r\n    }\r\n\r\n    function getJackPot() public view returns (uint) {\r\n        return jackPot;\r\n    }\r\n\r\n    function enroleInLottery(string memory playerName) public payable {\r\n       require(msg.value == 1 ether);\r\n       require(bytes(playerName).length > 0);\r\n       require(players.length < 10);\r\n        \r\n        player[msg.sender] = playerName;\r\n        players.push(msg.sender);\r\n\r\n        // On garde 10% pour un jackpot potentiel 1 chance sur 10 de frapp le bonus\r\n        prizePool += (msg.value * 90) / 100; \r\n        jackPot += (msg.value * 9) / 100;       \r\n\r\n        emit ANewPlayerEnrolled(string(abi.encodePacked(player[msg.sender], \" has enrolled!!! Good luck!\")));\r\n    }\r\n\r\n    function getParticipants() public view returns(address[] memory){\r\n        return players;\r\n    }\r\n\r\n    function getNumberOfParticipants() public view returns(uint){\r\n        return players.length;\r\n    }\r\n\r\n    function getAWinner() public {\r\n        \r\n        \r\n        require(players.length == 10, \"We do not have 10 participants yet \");\r\n        uint nbOfPlayers = players.length;\r\n        uint randomHash = uint(keccak256(abi.encodePacked(block.difficulty, block.timestamp)));\r\n        uint winnerIndex = randomHash % nbOfPlayers;\r\n\r\n        address winner = players[winnerIndex];   \r\n\r\n       //sendPrize(winner);\r\n\r\n        emit DisplayWinner(player[winner], winner);\r\n        \r\n        //return player[winner];\r\n    }\r\n\r\n    function getCalculatedPrizePool() public view returns (uint256){\r\n        uint256 effectivePrize;        \r\n        uint randomHash = uint(keccak256(abi.encodePacked(block.difficulty, block.timestamp)));\r\n        bool isJackpot = (randomHash % 100) <= jackPotOdds;\r\n\r\n        if(isJackpot){\r\n            effectivePrize = prizePool + jackPot;\r\n        }\r\n\r\n        return effectivePrize;\r\n    }\r\n    function sendPrize(address winner) private {\r\n        uint prize = prizePool;\r\n        prizePool = 0;\r\n        payable(winner).transfer(prize);\r\n    }\r\n}",
  "sourcePath": "D:\\doc\\Universit\\Universit-laval\\IFT-4100 Aspects pratiques de la chane de blocs\\TP3\\Lottery\\contracts\\Lottery.sol",
  "compiler": {
    "name": "solc",
    "version": "0.8.19+commit.7dd6d404.Emscripten.clang"
  },
  "schemaVersion": "3.4.16",
  "updatedAt": "2024-04-20T02:09:44.019Z",
  "networkType": "ethereum",
  "devdoc": {
    "kind": "dev",
    "methods": {},
    "version": 1
  },
  "userdoc": {
    "kind": "user",
    "methods": {},
    "version": 1
  }
}